Creation Time:2022/12/20 20:46:10 
Firmware Ver:1.2.658 
Device Type:0x17

Device Name:AC7000-AE-25

Segment Num:1

Segment Name:CONTROL

Board List:0

:020000040800F2
:10000000781600207D2600083F0E0008410E0008EB
:10001000450E0008490E00084D0E000800000000C3
:10002000000000000000000000000000510E000869
:10003000530E000800000000550E00082D0B0008AC
:1000400093260008932600089326000893260008AC
:10005000932600089326000893260008932600089C
:10006000932600089326000893260008932600088C
:10007000932600089326000893260008932600087C
:10008000932600089326000893260008932600086C
:10009000932600089326000893260008932600085C
:1000A000932600089326000893260008932600084C
:1000B000590E00089326000893260008932600088E
:1000C000932600089326000893260008932600082C
:1000D00093260008390B0008DB0B00087D0C000894
:1000E00093260008932600089326000800000000CD
:1000F0000000000000000000000000000000000000
:10010000000000000000000093260008932600086D
:100110001F0D0008C10D0008932600089326000853
:1001200093260008932600089326000893260008CB
:1001300093260008932600089326000893260008BB
:1001400093260008932600089326000893260008AB
:1001500000F002F800F03AF80AA090E8000C82449F
:100160008344AAF10107DA4501D100F02FF8AFF27C
:10017000090EBAE80F0013F0010F18BFFB1A43F085
:1001800001031847EC4100000C420000103A24BF64
:1001900078C878C1FAD8520724BF30C830C144BFEC
:1001A00004680C607047000000230024002500262E
:1001B000103A28BF78C1FBD8520728BF30C148BFCA
:1001C0000B6070471FB51FBD10B510BD04F099F846
:1001D0001146FFF7F7FF03F0CCF804F0B7F803B4CB
:1001E000FFF7F2FF03BC04F0BBF80000EFF3098057
:1001F000704780F309887047EFF30880704780F3F9
:100200000888704740BA7047C0BA704771B67047E7
:1002100061B6704701460020FE4A106800F03800C1
:10022000084310607047FB49096821F00801F94A4A
:10023000116011460968014311607047F54909686A
:1002400021F01001F34A1160114609680143116061
:100250007047F148EF494860F04848607047EE4801
:10026000EC494860ED4848607047EA48006940F052
:100270008000E84908617047E648006940F0800066
:10028000E449086170470420E249C96811F0010F90
:1002900001D001200EE0DF49C96811F0040F01D040
:1002A000022007E0DB49C96811F0100F01D00320DC
:1002B00000E00420704700B502460423FFF7E3FF87
:1002C000034603E0FFF7DFFF0346521E012B01D177
:1002D000002AF7D102B90523184600BD30B50446FF
:1002E0000425CF48FFF7E7FF0546042D16D1C9487E
:1002F000006940F00200C74908610846446100698E
:1003000040F040000861C648FFF7D5FF0546C148E8
:10031000006941F6FD710840BE490861284630BDBC
:1003200010B50424BE48FFF7C6FF0446042C15D1BF
:10033000B848006940F00400B64908610846006901
:1003400040F040000861B648FFF7B5FF0446B148E9
:10035000006941F6FB710840AE490861204610BDB6
:1003600000B502460423FFF78EFF034603E0FFF7C4
:100370008AFF0346521E012B01D1002AF7D102B990
:100380000523184600BD10B50424A548FFF7E8FF73
:100390000446042C15D19F48006940F004009D4993
:1003A00008610846006940F0400008619C48FFF77A
:1003B000D7FF04469748006941F6FB71084095490C
:1003C0000861204610BD00209249C96911F0020F52
:1003D00001D0012000E00020704730B5A52504249D
:1003E000FFF7F1FF00B100258D48FFF764FF0446D9
:1003F000042C39D188488749886088488860084635
:10040000006940F0200008610846006940F04000A3
:1004100008618348FFF74FFF0446042C1BD17D4839
:10042000006941F6DF7108407A49086108460069B1
:1004300040F0100008617B4805804013FFF73BFF48
:100440000446052C10D07348006941F6EF7108404E
:100450007049086108E0052C06D06E48006941F635
:10046000EF7108406B490861204630BD78B50646FB
:100470000C460425002000904FF6FF70FFF71BFF8D
:100480000546042D26D16348006940F0010061490A
:10049000086134804FF6FF70FFF70DFF0546042D0D
:1004A00011D1B01C0090200C009908804FF6FF700D
:1004B000FFF701FF05465748006941F6FE71084005
:1004C0005449086106E05348006941F6FE7108404E
:1004D00050490861284678BD70B504460D4604268B
:1004E0004FF6FF70FFF7E7FE0646042E12D149488B
:1004F000006940F001004749086125804FF6FF7010
:10050000FFF7D9FE06464348006941F6FE710840F0
:1005100040490861304670BD70B505460E4604245A
:100520004FF6FF70FFF7C7FE0446042C18D13A4877
:1005300038498860394888600846006940F01000F2
:1005400008612E804FF6FF70FFF7B5FE0446052CBC
:1005500006D03048006941F6EF7108402D49086126
:10056000204670BD2DE9F04304464FF6FF7637462E
:10057000B046B1460425E443E6B2C4F30727C4F30A
:1005800007484FEA14694FF6FF70FFF794FE0546DF
:10059000042D4BD120481F498860204888600846B8
:1005A000006940F010000861FF2E06D01D48083099
:1005B00006804013FFF77FFE0546042D08D1FF2F6C
:1005C00006D018480A3007804013FFF774FE05462E
:1005D000042D0AD1B8F1FF0F07D012480C30A0F853
:1005E00000804013FFF767FE0546042D0AD1B9F1DC
:1005F000FF0F07D00B480E30A0F800904013FFF714
:100600005AFE0546052D11D00248006941F6EF71EA
:10061000084009E00020024023016745AB89EFCD87
:10062000FFFF0F0000F8FF1F654908612846BDE87D
:10063000F08330B5054604246248FFF73CFE0446CB
:10064000042C3FD160485E49886060488860084655
:10065000006940F0200008610846006940F0400051
:1006600008615848FFF727FE0446042C21D154485E
:10067000006941F6DF710840514908610846006988
:1006800040F0100008611DB100205149088002E0CF
:10069000A5204F4908804B48FFF70DFE0446052C66
:1006A00010D04748006941F6EF710840444908619D
:1006B00008E0052C06D04248006941F6DF71084089
:1006C0003F490861204630BDF0B505460E46174645
:1006D00004243D483A4988603C4888604FF6FF70E2
:1006E000FFF7E9FD0446042C19D13548006940F0B4
:1006F00010003349086147F0F8003043284334497B
:10070000891C08804813FFF7D6FD0446052C06D047
:100710002B48006941F6EF710840294908612046DD
:10072000F0BD2748C069800870472548006A7047B7
:1007300000202349096811F0200F01D0012000E0BA
:100740000020704729B11E4A126902431C4B1A61EE
:1007500004E01B4A12698243194B1A617047014633
:100760000020012908D1164AD26912F0010F01D0E8
:10077000012008E0002006E0114AD2680A4201D0B8
:10078000012000E0002070470D49C8607047042038
:100790000B49C96811F0010F01D001200EE0084992
:1007A000C96811F0040F01D0022007E00449C968AC
:1007B00011F0100F01D0032000E00420704700006A
:1007C00000200240FFFF0F0023016745AB89EFCDFA
:1007D00000F8FF1F10B50446CA48844208D1012121
:1007E000042000F08DFD0021042000F089FD46E08A
:1007F000C548844208D10121082000F081FD002174
:10080000082000F07DFD3AE0C048844208D1012173
:10081000102000F075FD0021102000F071FD2EE089
:10082000BB48844208D10121202000F069FD00214D
:10083000202000F065FD22E0B648844208D1012165
:10084000402000F05DFD0021402000F059FD16E041
:10085000B148844208D10121802000F051FD0021DF
:10086000802000F04DFD0AE0AC48844207D1012110
:10087000801500F045FD0021A01500F041FD10BDE0
:1008800010B50121084600F03BFD0021012000F0D9
:1008900037FD10BD2DE9F04102460025002600205D
:1008A00000230024002791F803C00CF00F0591F8F5
:1008B00003C01CF0100F03D091F802C04CEA0505EC
:1008C00091F800C0BCF1000F31D0146800202BE07B
:1008D0004FF0010C0CFA00F3B1F800C00CEA03066B
:1008E0009E4220D183004FF00F0C0CFA03F7BC435B
:1008F00005FA03FC4CEA040491F803C0BCF1280F8C
:1009000006D14FF0010C0CFA00FCC2F814C00AE04A
:1009100091F803C0BCF1480F05D14FF0010C0CFA5F
:1009200000FCC2F810C0401C0828D1D31460B1F8F4
:1009300000C0BCF1FF0F34DD546800202EE000F150
:10094000080C4FF0010808FA0CF3B1F800C00CEAEB
:1009500003069E4221D183004FF00F0C0CFA03F7DF
:10096000BC4305FA03FC4CEA040491F803C0BCF153
:10097000280F05D100F1080C08FA0CF8C2F8148011
:1009800091F803C0BCF1480F07D100F1080C4FF0FB
:10099000010808FA0CF8C2F81080401C0828CED3D1
:1009A0005460BDE8F0814FF6FF7101800221817033
:1009B0000421C17070470246002093680B4201D0A9
:1009C000012000E0002070470146886880B270472F
:1009D00002460020D3680B4201D0012000E0002035
:1009E00070470146C86880B2704701617047416135
:1009F00070470AB1016100E041617047C160704712
:100A00004FF480320A438261816182618269826926
:100A1000704702460020424B18684FF6807318401A
:100A200040EA021008433E4B186070473D49C861D8
:100A30007047F0B50A46002300240021002500F08D
:100A40000046B6F1004F02D1354EF16901E0344E57
:100A50007168C0F3034583B200F44016B6F5401F39
:100A600008D121F070612E4E766826F070662C4F0A
:100A70007E6012E000F48016B6F5801F06D10326D2
:100A800006FA05F4A14341F0706106E0460D360117
:100A900003FA06F6B14341F0706122B1460D36010A
:100AA00003FA06F6314300F00046B6F1004F02D1DA
:100AB0001B4EF16101E01A4E7160F0BD30B50022AD
:100AC0008B071C0F0F2303FA04F2154B08338C100D
:100AD00053F824309343124C08348D1044F82530D9
:100AE00023468C1053F824308C07240F00FA04F4AA
:100AF00023430B4C08348D1044F8253030BD0A498F
:100B00000860704700080140000C014000100140DF
:100B10000014014000180140001C01400020014069
:100B20000000014000002042DC002042CD48006867
:100B3000401CCC490860704738B540F22551CA487E
:100B400000F0DCFD60B1C84800F058FD0446E1B299
:100B5000002002F011FF40F22551C34800F0F8FDDB
:100B600040F22661C04800F0C9FD70B1694600201E
:100B700002F04CFE20B19DF80010BB4800F03AFD99
:100B800040F22661B84800F0E3FD0821B64800F0C5
:100B90009FFD012806D10821B34800F0A6FDB24808
:100BA00000F02CFD0421B04800F092FD012806D190
:100BB0000421AD4800F099FDAB4800F01FFD022173
:100BC000A94800F085FD012806D10221A64800F0C1
:100BD0008CFDA54800F012FD38BD38B540F2255116
:100BE000A24800F08BFD60B1A04800F007FD04466C
:100BF000E1B2012002F0C0FE40F225519B4800F016
:100C0000A7FD40F22661994800F078FD70B1694671
:100C1000012002F0FBFD20B19DF80010934800F088
:100C2000E9FC40F22661914800F092FD08218F48CE
:100C300000F04EFD012806D108218C4800F055FD3A
:100C40008A4800F0DBFC0421884800F041FD0128BF
:100C500006D10421854800F048FD844800F0CEFC10
:100C60000221824800F034FD012806D102217F488C
:100C700000F03BFD7D4800F0C1FC38BD38B540F2C6
:100C800025517B4800F03AFD60B1794800F0B6FC90
:100C90000446E1B2022002F06FFE40F22551744892
:100CA00000F056FD40F22661714800F027FD70B15A
:100CB0006946022002F0AAFD20B19DF800106C48A0
:100CC00000F098FC40F22661694800F041FD0821DF
:100CD000674800F0FDFC012806D10821644800F0B7
:100CE00004FD634800F08AFC0421614800F0F0FC38
:100CF000012806D104215E4800F0F7FC5C4800F0B2
:100D00007DFC02215A4800F0E3FC012806D10221B3
:100D1000574800F0EAFC564800F070FC38BD38B582
:100D200040F22551534800F0E9FC60B1514800F011
:100D300065FC0446E1B2032002F01EFE40F225519C
:100D40004C4800F005FD40F226614A4800F0D6FC10
:100D500070B16946032002F059FD20B19DF80010E2
:100D6000444800F047FC40F22661424800F0F0FCA5
:100D70000821404800F0ACFC012806D108213D487C
:100D800000F0B3FC3B4800F039FC0421394800F086
:100D90009FFC012806D10421364800F0A6FC354806
:100DA00000F02CFC0221334800F092FC012806D10F
:100DB0000221304800F099FC2E4800F01FFC38BD9D
:100DC00010B540F225512C4800F098FC20B140F2BB
:100DD0002551294800F0BCFC40F22661264800F06D
:100DE0008DFC20B140F22661234800F0B1FC0821BF
:100DF000214800F06DFC012806D108211E4800F0B2
:100E000074FC1D4800F0FAFB04211B4800F060FC54
:100E1000012806D10421184800F067FC164800F0AC
:100E2000EDFB0221144800F053FC012806D10221F9
:100E3000114800F05AFC104800F0E0FB10BD70476C
:100E400000BFFEE700BFFEE700BFFEE700BFFEE712
:100E5000704770477047704710B50121880701F04F
:100E6000F8FB10BD14000020003801400044004091
:100E700000480040004C004000500040F948006825
:100E800040F00100F749086008464068F64908400C
:100E9000F449486008460068F4490840F149086090
:100EA0000846006820F4802008600846406820F466
:100EB000FE0048600846006820F0A05008604FF42B
:100EC0007F0088600020C8627047E649096821F405
:100ED0008031E44A11601146096821F480211160D3
:100EE000B0F5803F03D0B0F5802F0ED106E0DD498C
:100EF000096841F48031DB4A116007E0D94909688B
:100F000041F4A021D74A116000E000BF00BF704744
:100F100010B501460022002300204A11012A02D107
:100F2000D04C236806E0022A02D1CE4C236A01E0AD
:100F3000CC4C636A01F01F02012494401C4201D092
:100F4000012000E0002010BD38B5002000900024F2
:100F5000002500BF3120FFF7DBFF05460098401C4D
:100F600000900098A0F57F41FF3901D0002DF1D00D
:100F70003120FFF7CDFF08B1012400E00024204616
:100F800038BD01460020B74A106820F0F80040EA5A
:100F9000C10010607047B6490860704702460020E3
:100FA000B04B586820F4741042EA01031843AD4B6B
:100FB00058607047AE490866704702460020A94B4A
:100FC000D86AAC4B184042EA01031843A54BD862DB
:100FD000704701460020A34AD06A20F0F000084381
:100FE000D0627047014600209E4AD06A20F47060AB
:100FF0000843D06270479E498866704701460020CA
:10100000984AD06A20F470400843D06270479849EB
:101010000867704701460020924A506820F003009C
:101020000843506070478F48406800F00C007047DC
:10103000014600208B4A506820F0F00008435060C1
:10104000704701460020874A506820F4E06008435A
:101050005060704701460020824A506820F460507A
:1010600040EAC1005060704729B17E4A527A02437B
:101070007C4B5A7204E07B4A527A8243794B5A7213
:1010800070477D490860704701460020754A5068E6
:1010900020F440400843506070477849086070472A
:1010A0007649091D086070470021754A11706D4A24
:1010B00082F82010012802D0042808D103E0012181
:1010C0006F4A117004E005216D4A117000E000BF05
:1010D00000BF70476B49086070476249096A014365
:1010E000604A1162704767494439086070472DE9CA
:1010F000F0410021002200250023002600240027C3
:101100008C46DFF86081D8F8048008F00C0121B12A
:10111000042907D0082959D109E0DFF86C81C0F80B
:10112000008058E0DFF86081C0F8008053E0DFF80D
:101130003481D8F8048008F47012DFF82881D8F8D8
:10114000048008F48035920C0D2A01D0921C00E036
:10115000062235B9DFF8348102FB08F8C0F80080B8
:1011600033E0DFF80081D8F82C8008F48036DFF80F
:10117000F480D8F82C8008F00F0808F1010446B973
:10118000DFF80481B8FBF4F808FB02F8C0F800802F
:101190001BE0DFF8D080D8F82C80C8F3031808F1E2
:1011A0000107DFF8C080D8F82C80C8F3032808F1C5
:1011B000020CDFF8D480B8FBF7F808FB0CF8B8FB9A
:1011C000F4F808FB02F8C0F8008004E0DFF8B8800B
:1011D000C0F8008000BF00BFDFF88880D8F8048026
:1011E00008F0F0010909DFF8A88018F80130D0F8FC
:1011F000008028FA03F8C0F80480DFF86880D8F887
:10120000048008F4E061090ADFF8848018F80130EE
:10121000D0F8048028FA03F8C0F80880DFF844808A
:10122000D8F8048008F46051C90ADFF8648018F81F
:101230000130D0F8048028FA03F8C0F80C80DFF8F9
:101240002480D8F8048008F44041890BDFF84480FA
:1012500018F80130D0F80C80B8FBF3F8C0F8108013
:10126000BDE8F081001002400000FFF0FFFFF6FE35
:1012700000004242F0FFFEFFD8004242C405424255
:10128000201002408004424200127A0000093D0012
:10129000000000201000002029B1354A52690243A5
:1012A000334B5A6104E0324A52698243304B5A61EF
:1012B000704729B12E4A926902432D4B9A6104E08E
:1012C0002B4A926982432A4B9A61704729B1284A76
:1012D000D2690243264BDA6104E0254AD26982438F
:1012E000234BDA61704729B1214A926A0243204BAD
:1012F0009A6204E01E4A926A82431D4B9A627047CA
:1013000029B11B4AD2680243194BDA6004E0184A3B
:10131000D2688243164BDA60704729B1144A1269C9
:101320000243134B1A6104E0114A12698243104BC5
:101330001A6170470F49086070470F49C8647047C9
:101340000B49C87170470A48406A40F080700849EC
:101350004862704701460020054A92680A4201D05F
:10136000012000E0002070470149887270470000AA
:1013700000100240400442420000424210B50446C0
:10138000FB48844209D101218803FFF7B9FF0021FE
:101390004FF48040FFF7B4FF32E0F648844209D1B1
:1013A00001214804FFF7B9FF00214FF40030FFF797
:1013B000B4FF25E0F048844209D101218804FFF7F9
:1013C000ACFF00214FF48020FFF7A7FF18E0EB48A7
:1013D000844209D10121C804FFF79FFF00214FF487
:1013E0000020FFF79AFF0BE0E548844208D1012175
:1013F0000805FFF792FF00214FF48010FFF78DFFE3
:1014000010BD2DE9F04786B005460E460024A246E1
:1014100000BFA1460027B08900B100BF2F462C8A2B
:101420004CF6FF700440F08804432C82AC894EF6E1
:10143000F3100440B088318908437189084304439C
:10144000AC81AC8A4FF6FF400440B0890443AC82C3
:1014500001A8FFF74CFEC648874202D1DDF810A074
:1014600001E0DDF80CA0A88910F4004F08D00AEBC9
:10147000CA0000EB0A1031684900B0FBF1F807E040
:101480000AEBCA0000EB0A1031688900B0FBF1F8E2
:101490006420B8FBF0F004012009642101FB1089ED
:1014A000A88910F4004F08D0322000EBC900B0FB2F
:1014B000F1F000F00700044308E0322000EB0910CF
:1014C0006421B0FBF1F000F00F0004432C8106B062
:1014D000BDE8F0874FF41651016000218180C18082
:1014E00001810C21418100218181704710B50246A4
:1014F0000020108A4FF2FF0318400B884C882343CA
:101500008C882343CC8823431843108210BD0021CC
:10151000018041808180C180704721B1828942F47D
:101520000052828104E082894DF6FF731A40828165
:101530007047F0B503460024002600250020A1F5E1
:1015400010676A3F00D100BF1846C1F3421401F092
:101550001F06012707FA06F5012C01D10C3004E023
:10156000022C01D1103000E014301AB107682F436B
:10157000076002E00768AF430760F0BD1AB1838AD5
:101580000B43838202E0838A8B4383827047028A03
:101590004FF6F0731A400282028A0A4302827047B1
:1015A00082894FF2FF731A40828182890A438281C5
:1015B000704721B1828942F00202828104E082896F
:1015C0004FF6FD731A4082817047028A4FF6DF732F
:1015D0001A400282028A0A430282704721B1028ABB
:1015E00042F48042028204E0028A4BF6FF731A4002
:1015F00002827047C1F308028280704701468888E2
:10160000C0F308007047818941F001018181704772
:10161000028BD2B20283028B42EA0122028370471C
:10162000028B02F47F420283028B0A4302837047DB
:1016300021B1828A42F02002828204E0828A4FF63F
:10164000DF731A408282704721B1828A42F0100211
:10165000828204E0828A4FF6EF731A4082827047DA
:1016600021B1828A42F00802828204E0828A4FF627
:10167000F7731A408282704721B1828942F4004296
:10168000828103E08289C2F30E028281704721B118
:10169000828A42F40062828204E0828A4FF2FF73FF
:1016A0001A4082827047828A4FF6FB731A40828208
:1016B000828A0A438282704721B1828A42F0020202
:1016C000828204E0828A4FF6FD731A40828270475C
:1016D00002460020B1F5007F00D100BF13880B4205
:1016E00001D0012000E00020704701F40072B2F543
:1016F000007F00D100BFCA430280704770B5024628
:101700000024002300250020A1F510666A3E00D1C8
:1017100000BFC1F3421501F01F03012606FA03F3CF
:10172000012D02D19689334006E0022D02D1168A9E
:10173000334001E0968A33400C12012606FA04F485
:101740001688344013B10CB1012000E0002070BDB8
:1017500010B500220023A1F510646A3C00D100BF3F
:101760000A1201249440A3B2DC43048010BD00009F
:10177000003801400044004000480040004C004058
:101780000050004031490143314A1160704770B543
:10179000002100230F22C4780CB32D4C246804F4DC
:1017A000E064C4F5E064210AC1F10403CA4044784E
:1017B00004FA03F18478144021430901254C06788A
:1017C000A155047804F01F050124AC4005786D1183
:1017D0004FF0E02606EB8505C5F8004109E00478E6
:1017E00004F01F050124AC401B4D0678761145F826
:1017F000264070BD194A0A400243154B1B1F1A6050
:10180000704739B1124A121D12680243104B1B1D5A
:101810001A6006E00E4A121D126882430C4B1B1D13
:101820001A607047042808D14FF0E021096941F09F
:1018300004014FF0E022116107E04FF0E021096957
:1018400021F004014FF0E022116170470000FA0519
:101850000CED00E000E400E080E100E080FFFF1F0D
:1018600010B50446FE48844208D10121C014FFF798
:1018700047FD0021E014FFF743FDC4E0B4F1804FC1
:1018800008D101210846FFF748FD00210120FFF79C
:1018900044FDB8E0F348844208D101210220FFF75B
:1018A0003CFD00210220FFF738FDACE0EE48844209
:1018B00008D101210420FFF730FD00210420FFF7AB
:1018C0002CFDA0E0E948844208D101210820FFF75F
:1018D00024FD00210820FFF720FD94E0E448844225
:1018E00008D101211020FFF718FD00211020FFF77B
:1018F00014FD88E0DF48844208D101212020FFF751
:101900000CFD00212020FFF708FD7CE0DA4884422E
:1019100008D101214014FFF7F3FC00216014FFF708
:10192000EFFC70E0D548844209D10121C804FFF7DB
:10193000E7FC00214FF40020FFF7E2FC63E0D04811
:10194000844209D101210805FFF7DAFC00214FF498
:101950008010FFF7D5FC56E0CA48844209D1012126
:101960004805FFF7CDFC00214FF40010FFF7C8FC3D
:1019700049E0C548844208D101214020FFF7CDFC51
:1019800000214020FFF7C9FC3DE0C048844208D157
:1019900001218020FFF7C1FC00218020FFF7BDFC62
:1019A00031E0BB48844208D101218015FFF7B5FC26
:1019B0000021A015FFF7B1FC25E0B648844209D10B
:1019C00001210804FFF79CFC00214FF48030FFF751
:1019D00097FC18E0B048844209D101214804FFF780
:1019E0008FFC00214FF40030FFF78AFC0BE0AB487E
:1019F000844208D101218804FFF782FC00214FF4C2
:101A00008020FFF77DFC10BD00220288944B984295
:101A10000ED0994B98420BD0B0F1804F08D0914B2B
:101A2000984205D0904B984202D0904B984204D1F6
:101A30004FF68F731A404B881A438D4B984207D04C
:101A40008C4B984204D04FF6FF431A40CB881A4380
:101A500002808B8883850B880385814B98420BD04D
:101A6000854B984208D08B4B984205D08A4B9842C0
:101A700002D08A4B984201D10B7A038601238382DC
:101A8000704770B5002400220023058C4FF6FE76C7
:101A900035400584028C8388048B4FF68F752C406B
:101AA000B51E2C400D882C43751E2A400D892A43F3
:101AB0004D882A436A4DA8420BD06F4DA84208D0EA
:101AC000744DA84205D0744DA84202D0734DA8426F
:101AD00013D14FF6F7752A404D892A434FF6FB750F
:101AE0002A408D882A434FF6FF652B404FF6FF555D
:101AF0002B408D892B43CD892B4383800483CD8854
:101B00008586028470BD70B5002400220023058CF8
:101B10004FF6EF7635400584028C8388048B48F6B7
:101B2000FF752C404FF6FF452C400D884FF6FF7691
:101B300006EA05252C434FF6DF752A400D8906EA93
:101B400005152A434D8806EA05152A43444DA84247
:101B500002D0494DA8421DD14FF67F752A404D89CC
:101B60004FF6FF7606EA05152A434FF6BF752A4061
:101B70008D8806EA05152A434FF6FF352B404FF2B4
:101B8000FF752B408D8906EA85052B43CD8906EA32
:101B900085052B4383800483CD880587028470BD2F
:101BA00070B5002400220023058C4FF6FF663540F7
:101BB0000584028C8388848B4FF68F752C404FF6FA
:101BC000FC752C400D882C434FF6FF552A400D899B
:101BD0004FF6FF7606EA05252A434D8806EA0525D5
:101BE0002A431F4DA84202D0234DA8421DD14FF2D7
:101BF000FF752A404D894FF6FF7606EA05252A43F0
:101C00004FF6FF352A408D8806EA05252A434EF611
:101C1000FF752B404DF6FF752B408D8906EA0515A3
:101C20002B43CD8906EA05152B4383808483CD8819
:101C30008587028470BD70B5002200230024058CC6
:101C40004EF6FF7635400584038C8488828B48F6F7
:101C5000FF752A404FF6FF452A400D8820E000001E
:101C6000002C01400004004000080040000C00402F
:101C7000001000400014004000340140004C0140BE
:101C8000005001400054014000180040001C00407A
:101C90000020004000400140004401400048014055
:101CA0004FF6FF7606EA05252A434DF6FF752B40D1
:101CB0000D8906EA05352B434D8806EA05352B4389
:101CC000FA4DA84202D0FA4DA84208D14BF6FF7552
:101CD0002C408D894FF6FF7606EA85152C438480CB
:101CE0008283CD88A0F84050038470BD828B4FF270
:101CF000FF331A408283828B4FF6FF7303EA01237E
:101D00001A4382837047F0B50C4615460022002125
:101D10000026078C4EF6FF7C07EA0C070784828BAF
:101D2000018C4FF6FF7707EA043640F6FF473A404A
:101D30004FF6FF7707EA05273A434FF6FF7707EAA2
:101D400003373A43D94FB8420ED0D94FB8420BD0DF
:101D5000B0F1804F08D0D74FB84205D0D64FB84227
:101D600002D0D64FB84206D14DF6FF77394046F43F
:101D70008057394305E047F6FF57394044F4805710
:101D8000394382830184F0BD828B4FF6F3731A408E
:101D90008283828B0A4382837047F0B50C461546D6
:101DA000002200210026078C4FF6FF6C07EA0C0783
:101DB0000784828B018C4FF6FF7707EA04264FF6E3
:101DC0000C773A404FF6FF7707EA03172F433A4361
:101DD000B64FB8420ED0B64FB8420BD0B0F1804FDC
:101DE00008D0B44FB84205D0B34FB84202D0B34F79
:101DF000B84206D14FF6FF57394046F48077394351
:101E000005E04FF2FF57394044F48077394382832D
:101E10000184F0BD028B4FF2FF331A400283028B24
:101E20004FF6FF7303EA01231A4302837047F0B5AC
:101E30000C461546002200210026078C4FF6EF7C49
:101E400007EA0C070784028B018C4FF6FF7707EA3D
:101E5000041640F6FF473A404FF6FF7707EA03378C
:101E60003A434FF6FF7707EA05273A438F4FB842C8
:101E70000ED08F4FB8420BD0B0F1804F08D08D4FAD
:101E8000B84205D08C4FB84202D08C4FB84206D130
:101E90004FF6DF77394046F01007394305E04FF63B
:101EA0005F77394044F01007394302830184F0BD65
:101EB000028B4FF6F3731A400283028B0A430283AC
:101EC0007047F0B50C46154600220021068C4FF6EF
:101ED000FE773E400684028B018C4FF60C76324032
:101EE0007E1C06EA03162E433243704EB0420ED0DB
:101EF0006F4EB0420BD0B0F1804F08D06D4EB04263
:101F000005D06D4EB04202D06C4EB04206D14FF6B5
:101F1000FD76314044F00106314305E04FF6F57699
:101F2000314044F00106314302830184F0BD70B5B5
:101F300005460C465D4885420ED05D4885420BD073
:101F4000B5F1804F08D05B48854205D05A4885429C
:101F500002D05A48854200D100E000BF208850B925
:101F60002389A28861882846FFF7ABFFE1882846CD
:101F7000FFF79EFF25E0208804280AD12389A28844
:101F800061882846FFF753FFE1882846FFF742FFA4
:101F900017E0208808280AD12389A288618828466A
:101FA000FFF7FBFEE1882846FFF7EEFE09E02389F4
:101FB000A28861882846FFF7A6FEE1882846FFF739
:101FC00095FE70BD2DE9F04105460C46002601271F
:101FD000608808B9022600E00026A088012801D107
:101FE000022700E001272088A0B92389A288618800
:101FF0002846FFF766FFE1882846FFF759FF238947
:102000003A4631462846FFF712FFE1882846FFF797
:1020100001FF13E02389A28861882846FFF707FFA4
:10202000E1882846FFF7F6FE23893A4631462846DE
:10203000FFF747FFE1882846FFF73AFFBDE8F08148
:102040000A884B881A438B881A43CB881A430B891A
:102050001A434B891A438B891A43A0F844207047CE
:102060004FF6FF71818000210180C18041800172A3
:1020700070470021018041808180C18001814181C0
:102080008181C181704700210180418001218180CF
:102090000021C18001817047002101804180818041
:1020A000C18001814181818170470000002C014085
:1020B000003401400004004000080040000C0040D3
:1020C00021B1028842F00102028004E002884FF64A
:1020D000FE731A400280704731B1B0F8442042F4D8
:1020E0000042A0F8442005E0B0F84420C2F30E02FC
:1020F000A0F8442070471AB183890B43838102E022
:1021000083898B43838170478182704741EA020350
:10211000A0F8483070471AB183890B43838102E0ED
:1021200083898B438381704701894FF6F872114090
:10213000018170470A46002101894FF68F731940CB
:1021400011430181704730B504460D4629462046AB
:10215000FFF7F0FF208940F00700208130BD2DE916
:10216000F04104460D4616461F46602D06D13B46FB
:10217000012231462046FFF75AFE05E03B46012288
:1021800031462046FFF79DFE29462046FFF7D2FF45
:10219000208940F007002081BDE8F08130B50C4671
:1021A00000210189C9B24FF6FF7505EA03251543E1
:1021B00025432943018130BD2DE9F04105460E46F6
:1021C00017469846002443463A4631462846FFF7CC
:1021D000E5FF2C894FF6F870044044F007044FF6F1
:1021E0008F70044044F070042C81BDE8F081F0B59C
:1021F00004460D4616461F463B46324629462046B3
:10220000FFF7CCFF208940F480402081F0BD01859C
:10221000828270470A46002101884FF68F73194069
:10222000114301807047F0B50C4615461E4600214B
:10223000002200230189028B038C4FF6F877394086
:1022400021434FF6FC473A4040F201173A434FF61C
:10225000DD773B404FF6FF7707EA06172F433B43F6
:10226000018102830384F0BD0A460021018B4FF6F1
:102270008F7319401143018370470A460021018B77
:1022800048F6FF7319404FF6FF7303EA0223194320
:10229000018370470A460021818B4FF68F731940E6
:1022A0001143818370470A460021818B48F6FF73F2
:1022B00019404FF6FF7303EA0223194381837047E5
:1022C00021B1028842F08002028004E002884FF6C9
:1022D0007F731A400280704721B1828842F0040265
:1022E000828004E082884FF6FB731A408280704738
:1022F00021B1828842F00802828004E082884FF691
:10230000F7731A408280704721B1828842F001023F
:10231000828004E082884FF6FE731A408280704704
:102320000A460021018B4FF6F773194011430183D0
:1023300070470A460021018B4FF2FF7319404FF698
:10234000FF7303EA02231943018370470A46002101
:10235000818B4FF6F77319401143818370470A460A
:102360000021818B4FF2FF7319404FF6FF7303EA90
:1023700002231943818370470A460021018B4FF6DF
:10238000FB7319401143018370470A460021018BFA
:102390004FF6FF3319404FF6FF7303EA0223194348
:1023A000018370470A460021818B4FF6FB73194069
:1023B0001143818370470A460021818B4FF6FF331A
:1023C00019404FF6FF7303EA0223194381837047D4
:1023D0000A460021018B4FF67F7319401143018398
:1023E00070470A460021018BC1F30E014FF6FF73BF
:1023F00003EA02231943018370470A460021818BB7
:102400004FF67F7319401143818370470A460021BC
:10241000818BC1F30E014FF6FF7303EA02231943C8
:10242000818370470A460021018C4FF6FD731940E5
:102430001143018470470A460021018C4FF6F7735F
:1024400019401143018470470A460021018C4FF660
:10245000DF7319404FF6FF7303EA02131943018437
:1024600070470A460021018C4FF67F7319404FF6E2
:10247000FF7303EA02131943018470470A460021DF
:10248000018C4FF6FF5319404FF6FF7303EA022306
:102490001943018470470A460021018C4FF2FF73F3
:1024A00019404FF6FF7303EA022319430184704772
:1024B0000A460021018C4DF6FF7319404FF6FF7359
:1024C00003EA023319430184704730B50023012425
:1024D0008C40A3B2048C9C430484048C02FA01F562
:1024E000ADB22C43048430BD30B5002304248C40AD
:1024F000A3B2048C9C430484048C02FA01F5ADB2AF
:102500002C43048430BD70B50346002000241846D7
:10251000183001258D40ACB21D8CA5431D8409B136
:10252000082909D100EB6100056825F070050560F8
:102530000568154305600EE00D1FC5F34E052844E0
:10254000056825F4E045056005684FF6FF7606EA64
:1025500002263543056070BD21B1028842F00202B7
:10256000028004E002884FF6FD731A400280704733
:1025700021B1028842F00402028004E002884FF692
:10258000FB731A400280704721B1828842F08002BA
:10259000828004E082884FF67F731A408280704701
:1025A00002884FF6F7731A40028002880A430280BD
:1025B000704782884FF68F731A40828082880A4360
:1025C0008280704702894FF6F8731A4002810289AF
:1025D0000A430281704702894FF67F731A400281D5
:1025E00002890A4302817047818470478185704760
:1025F000818670470187704781877047A0F8401037
:10260000704702884FF6FF431A40028002880A434F
:10261000028070470146888E70470146088F7047D8
:102620000146888F70470146B1F840007047014667
:10263000888C70470146088D704702460020138A37
:102640000B4201D0012000E000207047CA43028203
:10265000704730B50246002000230024158A05EAA1
:102660000103958905EA010413B10CB1012000E0D2
:10267000002030BDCA43028270470000084800476E
:10268000FEE7FEE7FEE7FEE7FEE7FEE7FEE7FEE722
:10269000FEE7FEE703480449044A054B7047000083
:1026A00051010008781000207816002078120020D0
:1026B000781200200020411EFE4A11606FF0704227
:1026C000FD49C1F884204FF0FF314FF0E022C2F8FD
:1026D00080126FF07042F9490A6000BF03E00022E7
:1026E000F7490A54401C3C28F9D3704710B5FEF74F
:1026F000C5FB4FF48030FEF7E8FBFEF725FCF149FF
:1027000008700846007801282AD10020FEF790FCC6
:102710000020FEF79FFC4FF48060FEF792FC4FF420
:102720000040FEF7B1FC1020FDF788FD0220FDF708
:1027300071FD4FF4E0114FF48030FEF72FFC0120C3
:10274000FEF738FC00BF3920FEF7E2FB0028FAD084
:102750000220FEF75FFC00BFFEF765FC0828FBD1F6
:1027600001217C20FEF7A5FD01218803FEF7A1FDD4
:1027700001214FF4F010FEF7A9FD01210846FEF7F4
:1027800098FD01214806FEF7A1FD01210846FEF74C
:102790009DFD01210420FEF799FD10BD08B5FFF74E
:1027A00089FF00214FF00060FFF724F84FF4A0608C
:1027B000FEF7E8FF25208DF8000002208DF80100CB
:1027C00000208DF8020001208DF803006846FEF716
:1027D000DEFF26208DF8000002208DF80100012088
:1027E0008DF802008DF803006846FEF7D0FF272021
:1027F0008DF8000002208DF801008DF80200012004
:102800008DF803006846FEF7C2FF34208DF8000003
:1028100002208DF801008DF8020001208DF80300E0
:102820006846FEF7B4FF1E208DF8000002208DF8E8
:10283000010003208DF8020001208DF80300684696
:10284000FEF7A5FF4FF4E060FEF79CFF1C208DF81B
:10285000000000208DF8020001208DF8030068467A
:10286000FEF795FF08BD0EB54FF08040FEF7F8FF6C
:1028700042F21070ADF8040040F2CF20ADF8000035
:102880000020ADF8020069464FF08040FFF7BCF829
:10289000012211469007FFF72EFC01218807FFF760
:1028A0000FFC0EBD1FB5044600218748FEF735FE1C
:1028B00000940020ADF80400ADF80600ADF8080063
:1028C000ADF80C000C20ADF80A0069467E48FEF712
:1028D00098FD01217C48FEF720FE012240F225519F
:1028E0007948FEF726FE012240F226617648FEF77F
:1028F00020FE1FBD70B542F22831B1F1807F00D3B8
:102900001DE021F07F40401E4FF0E0225061501743
:102910000F22002807DA13071D0E6C4B00F00F047E
:10292000241F1D5503E013071C0E654B1C5400BFEC
:1029300000204FF0E02290610720106100BF6FF08F
:102940000400FEF76FFF70BD08B54FF48060ADF86E
:10295000000004208DF8030003208DF80200694672
:102960005B48FDF797FF4FF40070ADF800001820AA
:102970008DF8030003208DF8020069465448FDF7E6
:1029800089FF01214804FEF7A1FC0420ADF80000F6
:1029900018208DF8030003208DF8020069464C488A
:1029A000FDF778FF0820ADF8000004208DF8030043
:1029B00003208DF8020069464548FDF76BFF4FF490
:1029C0000060ADF8000004208DF8030003208DF8AE
:1029D000020069463F48FDF75DFF4FF48060ADF8A7
:1029E000000018208DF8030003208DF802006946CE
:1029F0003848FDF74FFF0420ADF800008DF80300C4
:102A000003208DF8020069463348FDF743FF4FF479
:102A10008050ADF8000018208DF8030003208DF8D9
:102A2000020069462B48FDF735FF08BD08B5284868
:102A3000FDF7D0FE2948FDF7CDFE2648FDF7CAFE7A
:102A40002548FDF7C7FE2648FDF7C4FE01212548AD
:102A5000FDF7EFFFC020ADF8000014208DF8030053
:102A600003208DF8020069461C48FDF713FF012082
:102A7000ADF8000010208DF8030003208DF802004F
:102A800069461348FDF706FF01211148FDF7AFFF26
:102A90004FF40050ADF8000004208DF8030003202F
:102AA0008DF8020069460D48FDF7F4FEC020ADF830
:102AB000000019E080E100E000E100E084E200E0D5
:102AC00000E400E018000020004C004018ED00E099
:102AD000000801400010014000140140000C0140BA
:102AE000001801400002300010208DF80300032080
:102AF0008DF8020069465448FDF7CCFE402152484B
:102B0000FDF775FF80215048FDF771FF4FF480708D
:102B1000ADF8000010208DF8030003208DF80200AE
:102B200069464948FDF7B6FE4FF48050ADF8000005
:102B300010208DF8030003208DF8020069464348F9
:102B4000FDF7A8FE44F22020ADF8000010208DF81B
:102B5000030003208DF8020069463C48FDF79AFE09
:102B60004FF400713948FDF742FF20213748FDF747
:102B70003EFF4FF480413548FDF737FFC020ADF8E8
:102B8000000010208DF8030003208DF80200694634
:102B90002F48FDF77FFE40212D48FDF728FF8021BB
:102BA0002B48FDF724FF1820ADF8000004208DF815
:102BB000030003208DF8020069462448FDF76AFEF1
:102BC0004FF40040ADF8000004208DF8030003200E
:102BD0008DF8020069461C48FDF75CFE08BD014601
:102BE00000201C4A12688A4201DD012200E0002216
:102BF0001046704701460A460AB901207047154839
:102C000000680844FAE770B50446002620681249B7
:102C10000840B0F1005F04D12068FDF7F0FA656864
:102C2000A847FDF7F5FA304670BD10B5FDF7EEFA8E
:102C3000FFF75CFDFFF7FAFEFFF786FEFFF75AFE8F
:102C4000FFF7ACFD10BD000000080140000C014082
:102C500000100140140000200000FE2F10B50246B5
:102C6000002003E032F8024B231898B20B00A1F1C8
:102C70000104A1B2F6D110BD70B50246002414467D
:102C80000023002011E014F8015B684000230AE0F3
:102C900010F0010F04D04AF2010585EA600000E05F
:102CA00040105D1CABB2082BF2DB0D00A1F101015D
:102CB000E9D170BD70B504460D46164672082B4624
:102CC0002146A02001F0ECF970BD024600210DE084
:102CD00001EB8100F84B13F82000904204D101EB86
:102CE000810003EB80007047481CC1B20029EFD07F
:102CF0000020F8E770B54A260020FFF7E6FF0446FB
:102D000004B970BD002524E0A18888B24A22EB49AD
:102D1000FFF7D0FF2421E948801CFFF79FFFE74918
:102D20000988884200D1ECE7A188A26801EB520132
:102D300088B24A22E149FFF7BDFF2421DF48801C09
:102D4000FFF78CFFDD490988884200D1D9E7681C6C
:102D5000C5B2032DD8DB00BFD3E72DE9F047ADF5B1
:102D6000806D8046894615461C46DDF820A42DB9A5
:102D70004FF0FF300DF5806DBDE8F08704F10800DD
:102D8000B0F5806F02D94FF0FF30F3E7BAF1000FD2
:102D900009D1CB4800788DF80500C9480078401C5F
:102DA000C749087001E08DF805A0FA208DF80000F1
:102DB00003208DF80100ADF802808DF80490ADF885
:102DC000064004F1080086B22246294602A801F016
:102DD000CDF931466846FFF74FFF074602A8075571
:102DE0003A0A611C4254B01C86B23246694603203E
:102DF00000F07FFD0020BDE7F8B505460E461446FD
:102E00004FF48071AF4801F0FEF9AF480068FFF75A
:102E1000E6FEF8B12022A9490A31AA4801F0A6F934
:102E2000A6480079A74981F820001022A3492A3139
:102E3000A448233001F09AF9E0B27D23A14A02218F
:102E400000900020FFF789FF41F28830FFF7D2FEA3
:102E50009D490860F8BD38B504464FF48071994823
:102E600001F0D1F999480068FFF7B9FEA8B1002038
:102E70009449087002204870887000200E230A468A
:102E800003210090FFF769FF41F28830FFF7B2FE9F
:102E90008E49086002208E49087038BD10B58C48F4
:102EA000007820B1012808D002280BD109E00022C7
:102EB00011461046FFF7A0FF05E00020FFF7CBFF0B
:102EC00001E000E000BF00BF10BDFEB504460D46A6
:102ED00016461F46ADF80440ADF80650ADF8086040
:102EE000062301AA0B2100200097FFF736FF0120DF
:102EF000FEBD2DE9F05F04464FF001092079AB28B3
:102F00007ED104F1080595F80080AF7994F805A00A
:102F1000B8F1000F75D1062F74D2DFE807F07706FD
:102F2000093174034FF0000988E04FF0000985E093
:102F3000FDF78FF93520FDF727FC0026FDF766F930
:102F40006F2611E063490A1402FB0610FDF7C6F96B
:102F50006149087008460078042802D101200870F1
:102F600000E003E0701E06B2002EEBDA00BFFDF7B2
:102F70004FF9002E01DA4FF00009FDF776F95DE018
:102F8000FDF767F90026B3466E88A88840EA064632
:102F90005048864202D35148864204D9FDF765F96C
:102FA0004FF000094AE0FDF731F94FF0000B16E051
:102FB00005F10A0000EB4B0001883046FDF78CFA62
:102FC0004549087008460078042803D1B61C012042
:102FD000087000E006E00BF101001FFA80FB288971
:102FE0005845E5DC00BFFDF713F92889584501DC99
:102FF0004FF000090F20FDF75EF9FDF736F91DE0EF
:1030000024E022E019E04FF0000917E04FF47A7055
:10301000FFF7F0FD064600BF3046FFF7E0FD002851
:10302000FAD000BF2E48006800F4E0602D49084344
:10303000001D2B49086000BF00E000BF00BF5346E1
:103040004A4639464046FFF740FF11E02079AA285A
:1030500008D104F108004178122902D100221C4B4A
:103060001A7005E02079A22802D1012018490870C1
:103070000120BDE8F09FF8B505460E460024002764
:103080000020009000BF8FE0295D1748B0F80024B1
:10309000B0F80004401C83B21348A0F800348154F7
:1030A00090F8020480BB10480078FA281ED0002156
:1030B0000D48A0F8001475E01C0000207C0A0020D8
:1030C000440000207C0000203C0000204000002044
:1030D00034000020008000084D000020FFFF03089E
:1030E0000CED00E00000FA05C60A0020BE48B0F86A
:1030F0000004022817DBBC484078032805D00021D3
:10310000B948A0F800144DE00DE00121B64880F860
:1031100002140021A0F8041441F28830FFF76AFD80
:10312000B24908603EE0B048B0F80004B0F5806FE6
:1031300006DB0021AC48A0F8001480F8021431E04E
:10314000A948B0F80004082804D1A748C188A0F80D
:10315000041427E0A448B0F80014B0F804040A30BE
:1031600081421ED3A048B0F80004811E9E48FFF79C
:1031700083FD07469C48B0F800049B49084430F89A
:10318000020C0090BDF80000874204D10846B0F858
:103190000014FFF7AEFE00219348A0F8001480F859
:1031A000021400BF601C84B2B442FFF66DAFF8BDDC
:1031B00010B5C0B04FF48071684601F046F84FF486
:1031C00080726946032000F037FC04461CB1A1B2AE
:1031D0006846FFF750FF844890F8020460B18348C6
:1031E0000068FFF7FCFC38B100217F48A0F800140C
:1031F000A0F8041480F8021440B010BD00B58DB0E2
:103200004FF4E13009900020ADF82800ADF82A0015
:10321000ADF82C00ADF82E000C20ADF8300074484D
:1032200008904FF480700790724806904FF4006049
:10323000059001466F4800F0E6FF4FF480716C483E
:1032400000F0E1FFDDE90501CDE90301DDE907015A
:10325000CDE901010C980090032009A90EC900F0E6
:103260008DFC08B90DB000BD00BFFBE700B58DB007
:103270004FF4E13009900020ADF82800ADF82A00A5
:10328000ADF82C00ADF82E000C20ADF830005A48F7
:103290000890802007905948069040200590DDE96D
:1032A0000501CDE90301DDE90701CDE901010C9834
:1032B0000090002009A90EC900F060FC08B90DB00B
:1032C00000BD00BFFBE710B54D480068401C4C49ED
:1032D00008600846006840F6AC5188420ADB49485D
:1032E000007808B9012000E000204649087000205D
:1032F0004349086043480078E8B14348808817286C
:1033000003D04148808818280AD14FF480513F48A3
:10331000FDF76DFB4FF480713D48FDF768FB27E03A
:103320004FF480513948FDF760FB4FF48071384805
:10333000FDF75BFB1CE034488088172803D0324837
:10334000808818280AD14FF480513048FDF74FFB90
:103350004FF480712E48FDF748FB09E04FF480518F
:103360002A48FDF742FB4FF480712948FDF73FFBE7
:1033700010BDFFF75AFCFFF741FFFFF777FFFCF79F
:1033800068FF00F0C9FCFFF7B5FC22480068008820
:103390004FF6F07100EA0104FCF73AFFA4F5AA40E9
:1033A000A0380DD01C4800784F2809D11A48401C7D
:1033B00000784B2804D1FCF729FF1848FFF723FCBD
:1033C0000020144909680880FCF722FF00231A46F0
:1033D00005211846FFF779FD05E0FFF774FFFFF7B9
:1033E0005DFDFFF7E5FEF8E7C60A00203800002083
:1033F0007C0100207C0200200C0F0020CC0E00205D
:10340000480000204C0000207C0A0020000C0140F5
:103410000008014030000020FCFF03080080000885
:1034200010B502460A2A01DB002010BD02EB420063
:10343000F54B13F8200008B90020F6E702EB420034
:10344000F14B03EB8000C08808B90020EDE702EBE8
:103450004200ED4B03EB8000806802EB4203EA4C34
:1034600004EB83039B88C15402EB4200234603EB29
:1034700080008088401C02EB420304EB83039880A9
:1034800002EB4200234603EB8000808802EB4203FC
:1034900004EB8303DB88984205DB002002EB420348
:1034A00004EB830398800120BFE7F0B503460C4688
:1034B0000A2B01DB0020F0BD03EB4300D24D15F8D1
:1034C000200008B90020F6E703EB4300CE4D05EBE2
:1034D0008000C08808B90020EDE704B10AB90020D7
:1034E000E9E700212FE0605C03EB4305C64E06EBE5
:1034F0008505AD6803EB4306C34F07EB8606B68828
:10350000A85503EB43003D4605EB80008088401C36
:1035100003EB43053E4606EB8505A88003EB43001D
:10352000354605EB8000808803EB430506EB8505F7
:10353000ED88A84205DB002003EB430506EB85057B
:10354000A880481C81B29142CDDB0120B3E710B5C1
:1035500002460A2A01DB002010BD02EB4200AA4B02
:1035600013F8200008B90020F6E702EB4200A64B52
:1035700003EB8000C08808B90020EDE702EB4200B1
:10358000A14B03EB8000408802EB42039E4C04EB0E
:1035900083039B88984201D10020DDE702EB4200C3
:1035A000994B03EB8000806802EB4203964C04EBDE
:1035B00083035B88C05C087002EB4200234603EB88
:1035C00080004088401C02EB420304EB83035880D8
:1035D00002EB4200234603EB8000408802EB4203EB
:1035E00004EB8303DB88984205DB002002EB4203F7
:1035F00004EB830358800120AEE7F0B503460D4687
:103600000A2B01DB0020F0BD03EB43007E4E16F8D1
:10361000200008B90020F6E703EB43007A4E06EBE2
:103620008000C08808B90020EDE70DB90020EAE766
:103630003AB103EB4300744E06EB8000C088904221
:1036400006DA03EB4300704E06EB8000C48800E00E
:10365000144600213EE003EB43006B4E06EB800076
:10366000408803EB4306684F07EB8606B688B042F6
:1036700001D10846C7E703EB4300634E06EB800029
:10368000806803EB4306604F07EB86067688805D13
:10369000685403EB43003E4606EB80004088401C24
:1036A00003EB430607EB8606708003EB43003E46C0
:1036B00006EB8000408803EB430607EB8606F6889E
:1036C000B04205DB002003EB430607EB8606708063
:1036D000481C81B2A142BEDB204694E710B50446E7
:1036E0000A2C01DB002010BD04EB4400464911F810
:1036F000200008B90020F6E704EB4400424901EB42
:103700008000C08808B90120EDE7002004EB4401E7
:103710003D4A02EB8101488004EB440102EB810148
:10372000888004EB4402384B03EB8202D18804EB1F
:10373000440203EB82029068302200F05CFD01201D
:10374000D1E701460A2901DB0020704701EB410067
:103750002D4A12F8200008B90020F6E701EB4100DD
:10376000294A02EB8000C08808B90120EDE700205B
:1037700001EB4102244B03EB8202508001EB41023A
:1037800003EB8202908001EB410203EB8202D080C6
:1037900001EB410203F8220001EB410203EB82023C
:1037A00090600120D1E707B503460A2B01DB00201A
:1037B0000EBD03EB4300144911F82000012800D18D
:1037C000F6E7029808B90020F2E703EB43010E4A3E
:1037D00002EB810102988860002003EB430102EBB9
:1037E0008101488003EB430102EB8101888003EBF8
:1037F000430102EB81010198C880012003EB4301E2
:1038000002F8210000BFD3E78C0F002070B50446FA
:103810000E46052C04DA04EB4400FC49085C30B980
:10382000002004EB4401F94A1144487070BD0CB902
:10383000002511E0012C01D102250DE0022C01D15F
:10384000042509E0032C01D1062505E0042C01D153
:10385000082501E00020E9E731462846FFF777FE1A
:1038600030B9002004EB4401E84A11444870DDE718
:103870000120DBE7F8B504460E46052C04DA04EB1C
:103880004400E249085C08B90020F8BD0CB90025E5
:1038900011E0012C01D102250DE0022C01D10425FB
:1038A00009E0032C01D1062505E0042C01D10825EF
:1038B00001E00020E9E731462846FFF7B1FD04EBBF
:1038C0004400D2490844407888B9012004EB4401FF
:1038D000CE4A1144487069462046FFF797FF9DF88D
:1038E0000010CB4A02EBC4025068FDF783FE0120B2
:1038F000CBE7F8B504460E461746052C06DA04EB6E
:103900004400C249085C08B107B10EB90020F8BDF7
:103910000CB9002511E0012C01D102250DE0022C8B
:1039200001D1042509E0032C01D1062505E0042C72
:1039300001D1082501E00020E9E73A463146284652
:10394000FFF7B3FD04EB4400B0490844407888B960
:10395000012004EB4401AD4A1144487069462046F9
:10396000FFF754FF9DF80010A94A02EBC40250680B
:10397000FDF740FE0120CAE770B504460D46052C50
:1039800004DA04EB4400A149085C00B970BD24B915
:1039900029460120FFF744FD1CE0012C04D12946F3
:1039A0000320FFF73DFD15E0022C04D12946052038
:1039B000FFF736FD0EE0032C04D129460720FFF760
:1039C0002FFD07E0042C04D129460920FFF728FD2C
:1039D00000E0DBE700BFD9E770B504460D46052CD3
:1039E00004DA04EB44008949085C08B9002070BD82
:1039F00024B929460120FFF7AAFDF8E7012C04D1DC
:103A000029460320FFF7A3FDF1E7022C04D1294644
:103A10000520FFF79CFDEAE7032C04D12946072087
:103A2000FFF795FDE3E7042C04D129460920FFF7B1
:103A30008EFDDCE70020DAE72DE9F04104460E4672
:103A40001746052C05DA04EB44007049085C00B108
:103A500016B90020BDE8F0810CB9012511E0012C58
:103A600001D103250DE0022C01D1052509E0032C2D
:103A700001D1072505E0042C01D1092501E0002032
:103A8000E8E73A4631462846FFF7B7FDE2E710B5CA
:103A90000446052C04DA04EB44005C49085C08B9D0
:103AA000002010BD34B90020FFF718FE0120FFF7F9
:103AB00015FE25E0012C06D10220FFF70FFE0320A2
:103AC000FFF70CFE1CE0022C06D10420FFF706FED7
:103AD0000520FFF703FE13E0032C06D10620FFF7B5
:103AE000FDFD0720FFF7FAFD0AE0042C06D10820AF
:103AF000FFF7F4FD0920FFF7F1FD01E00020D0E71A
:103B00000120CEE70FB41FB5044607980090BDF81A
:103B10002000ADF80400BDF82200ADF80600BDF8A5
:103B20002400ADF80800BDF82600ADF80C00BDF883
:103B30002800ADF80A00364901EBC401486869461F
:103B4000FDF75FFC324901EBC40148680121FDF734
:103B5000E4FC2F4901EBC4010122486840F22661D0
:103B6000FDF7E7FC2A4901EBC4010122486840F255
:103B70002551FDF7DEFC1FBC5DF814FB0FB4F8B552
:103B80000446052C03DB0020F8BC5DF814FB04EBB5
:103B900044001E49085C012800D1F5E714B900254E
:103BA000012615E0012C02D10225032610E0022C8B
:103BB00002D1042505260BE0032C02D10625072699
:103BC00006E0042C02D10825092601E00020DBE7ED
:103BD0002846DDE90B12FFF7E6FD3046DDE90D1260
:103BE000FFF7E1FD0A980090204607A90EC9FFF7EC
:103BF00089FF002004EB4401044A1144487001206D
:103C000004EB4401505400BFBEE700000410002044
:103C10005000002010B50446052C01DB002010BD2B
:103C200004EB44002949085C08B90020F7E728495B
:103C300001EBC40148680021FDF76FFC244901EB4A
:103C4000C4010022486840F22661FDF772FC204959
:103C500001EBC4010022486840F22551FDF769FCE0
:103C600034B90020FFF76DFD0120FFF76AFD25E064
:103C7000012C06D10220FFF764FD0320FFF761FD50
:103C80001CE0022C06D10420FFF75BFD0520FFF7A6
:103C900058FD13E0032C06D10620FFF752FD072044
:103CA000FFF74FFD0AE0042C06D10820FFF749FD7D
:103CB0000920FFF746FD01E00020B0E7002004EBFB
:103CC0004401024A50540120A9E7000004100020DA
:103CD0005000002001B502E00098401E00900098BE
:103CE0000028F9D108BD01B505E00098401E0090FC
:103CF0000A20FFF7EFFF00980028F6D108BD01B5B4
:103D000006E00098401E009043F69820FFF7E2FF7F
:103D100000980028F5D108BD0420FE4908707047BE
:103D200000B50220FFF7DFFF00BFFB48006840F04E
:103D30008000F949086000BF00BF0846006840F0F5
:103D40004000086000BF0220FFF7CDFF00BFF2482F
:103D5000001D006840F08000EF49091D086000BFA9
:103D60000220FFF7C0FF00BFEB48001D006840F0D5
:103D70004000E949091D086000BF00BD00B50220F0
:103D8000FFF7B1FF00BFE448001D006840F04000AD
:103D9000E149091D086000BF00BF0846006840F007
:103DA0008000086000BF0220FFF79DFF00BFDA48D7
:103DB000006840F04000D849086000BF0220FFF7CB
:103DC00092FF00BFD448006840F08000D2490860EC
:103DD00000BF00BD10B5FF2400BFCF48006840F011
:103DE0008000CD49086000BF0220FFF77CFF00BFC4
:103DF000C948001D006840F04000C749091D08601F
:103E000000BF0220FFF76FFF00BFC348006840F00B
:103E10004000C149086000BF0220FFF764FF06E0D0
:103E2000601EC4B21CB9FFF7A9FF002010BD80219D
:103E3000B9481038FCF7BFFD0028F1D100BFB648E3
:103E4000001D006840F04000B349091D086000BF34
:103E50000120EBE700B500BFAF48001D006840F04F
:103E60008000AD49091D086000BF0220FFF73BFF3D
:103E700000BFA948006840F04000A749086000BFA3
:103E80000220FFF730FF00BFA348001D006840F08C
:103E90004000A149091D086000BF00BD00B500BF7A
:103EA0009D48006840F080009B49086000BF0220E8
:103EB000FFF719FF00BF9848006840F0400096499E
:103EC000086000BF0220FFF70EFF00BF9248001DF0
:103ED000006840F040009049091D086000BF00BD27
:103EE00000B5014608223BE000BF8B48001D00687A
:103EF00040F04000884B1B1D186000BF0220FFF7F8
:103F0000F2FE11F0800F07D000BF8348006840F038
:103F10008000814B186009E000BF7F48001D0068E9
:103F200040F080007C4B1B1D186000BF4806010E4E
:103F30000220FFF7D8FE00BF7748006840F040003D
:103F4000754B186000BF0220FFF7CDFE00BF72481E
:103F5000001D006840F040006F4B1B1D186000BF43
:103F60001000A2F10103DAB2BED100BF6A48001D01
:103F7000006840F04000684B1B1D186000BF00BD8A
:103F800070B50825002400BF6348006840F0800039
:103F90006149086000BF1FE06006040E00BF5E4874
:103FA000001D006840F040005B49091D086000BF2B
:103FB0000220FFF798FE00BF5748006840F040001D
:103FC0005549086000BF0220FFF78DFE802152484E
:103FD0001038FCF7F0FC04432800A5F10101CDB234
:103FE000DAD100BF4C48001D006840F040004A494B
:103FF000091D086000BF204670BD2DE9F0418046D4
:104000000D4614461F4614B90020BDE8F081414812
:104010000078042801D00120F7E74FF6FE70054034
:10402000401C00EA440402203A49087000BF05F031
:104030003F00C0F14006A64200DD2646A01B84B228
:10404000FFF76EFE4046FFF74BFFFFF7C3FE280A5F
:10405000FFF746FFFFF7BEFEE8B2FFF741FFFFF7AD
:10406000B9FEA81985B20DE0B01E86B23878FFF708
:1040700037FFFFF7AFFE3988080AFFF731FFFFF778
:10408000A9FEBF1C002EEFD1FFF778FE0220FFF73C
:1040900036FE002CCBD104201E4908700020B4E766
:1040A0002DE9F04180460D4614461F4614B9002004
:1040B000BDE8F08117480078042801D00120F7E717
:1040C0004FF6FE700540401C00EA440403201149ED
:1040D000087000BF05F03F00C0F14006A64200DDB9
:1040E0002646A01B84B2FFF71BFE4046FFF7F8FEF2
:1040F000FFF770FE280AFFF7F3FEFFF76BFEE8B24A
:10410000FFF7EEFEFFF766FEA81985B2FFF708FE7F
:1041100004E0000078000020100C014048F001008D
:10412000FFF7DEFEFFF756FE10E0B01E86B2FFF787
:1041300027FF3880FFF78EFEFFF722FF398801EB5B
:10414000002038800EB1FFF785FEBF1C002EECD199
:10415000FFF7A4FEFFF712FE002CBBD1042002499A
:1041600008700020A4E7000078000020032A40F235
:10417000308010F0030C00F0158011F8013BBCF109
:10418000020F624498BF11F801CB00F8013B38BF21
:1041900011F8013BA2F1040298BF00F801CB38BF2F
:1041A00000F8013B11F0030300F07980083AC0F0F9
:1041B000088051F8043B083A51F804CBA0E80810F5
:1041C000F5E7121D5CBF51F8043B40F8043BAFF328
:1041D0000080D20724BF11F8013B11F801CB48BF82
:1041E00011F8012B24BF00F8013B00F801CB48BFB8
:1041F00000F8012B704702F0FF0343EA032242EA72
:10420000024200F002B84FF000020429C0F0128010
:1042100010F0030C00F01B80CCF1040CBCF1020F79
:1042200018BF00F8012BA8BF20F8022BA1EB0C014E
:1042300000F00DB85FEAC17C24BF00F8012B00F844
:10424000012B48BF00F8012B70474FF0000200B56A
:10425000134694469646203922BFA0E80C50A0E8A9
:104260000C50B1F12001BFF4F7AF090728BFA0E857
:104270000C5048BF0CC05DF804EB890028BF40F823
:10428000042B08BF704748BF20F8022B11F0804F65
:1042900018BF00F8012B704770477047704710B582
:1042A000203AC0F00B80B1E81850203AA0E818502E
:1042B000B1E81850A0E81850BFF4F5AF5FEA027CEF
:1042C00024BFB1E81850A0E8185044BF18C918C05E
:1042D000BDE810405FEA827C24BF51F8043B40F8FF
:1042E000043B08BF7047D20728BF31F8023B48BFE4
:1042F00011F8012B28BF20F8023B48BF00F8012B22
:104300007047754600F028F8AE46050069465346EA
:1043100020F00700854618B020B5FEF7BBF9BDE8D0
:1043200020404FF000064FF000074FF000084FF01C
:10433000000B21F00701AC46ACE8C009ACE8C009AD
:10434000ACE8C009ACE8C0098D4670470446AFF33D
:1043500000802046FBF743FF004870471410002000
:1043600001491820ABBEFEE726000200704700009E
:1043700090430008000000207C0000008C01000831
:104380000C4400087C000020FC150000A801000877
:1043900000000000010203040102030406070809EB
:1043A00002040608000000000000000000000000F9
:1043B00000000000000100004A00000001000000B1
:1043C000FCFF0020000000000000000000000000D2
:1043D00000000000010000000000000000000000DC
:1043E00000000000003801400100000000440040CF
:1043F000020000000048004003000000004C0040A4
:0C4400000400000000500040000000001C
:020000040800F2
:10800000B0B4002085820008BDBB0008BFBB0008DB
:10801000C9BB0008CDBB0008D1BB000800000000B0
:10802000000000000000000000000000D5BB0008B8
:10803000D7BB00080000000009B80008DBBB00083F
:108040009B8200089B8200089B8200089B8200089C
:108050009B8200089B8200089B8200089B8200088C
:108060009B8200089B8200089B82000873C1000865
:108070009B8200089B8200089B8200089B8200086C
:108080009B8200089B8200089B8200089B8200085C
:108090009B8200089B8200089B8200089B8200084C
:1080A0009B8200089B8200089B8200089B8200083C
:1080B0009B820008E7C10008C9C300089B82000832
:1080C0009B8200089B8200089B8200089B8200081C
:1080D0009B82000825BC0008A9BC000837BD000829
:1080E0009B8200089B8200089B8200089B820008FC
:1080F0009B8200089B8200089B8200089B820008EC
:108100009B8200089B820008A9C500089B8200088A
:10811000BBBD00083FBE00089B8200089B82000890
:108120009B8200089B8200089B8200089B820008BB
:1081300000F002F800F093F80AA090E8000C8244E6
:108140008344AAF10107DA4501D100F088F8AFF2C3
:10815000090EBAE80F0013F0010F18BFFB1A43F025
:1081600001031847ECA102001CA202000A444FF0D0
:10817000000C10F8013B13F0070408BF10F8014B86
:108180001D1108BF10F8015B641E05D010F8016BCB
:10819000641E01F8016BF9D113F0080F1EBF10F82F
:1081A000014BAD1C0C1B09D16D1E58BF01F801CB52
:1081B000FAD505E014F8016B01F8016B6D1EF9D5D5
:1081C0009142D6D370470000103A24BF78C878C1D6
:1081D000FAD8520724BF30C830C144BF04680C60CD
:1081E000704700000023002400250026103A28BF15
:1081F00078C1FBD8520728BF30C148BF0B60704719
:10820000702923F01387692923F01A86642923F043
:108210001786752923F014866F2923F0AB867829F9
:1082200023F0F7860368DB0928BF41F0800163294A
:1082300024F0CD82732924F0D282E32924F0DD8258
:10824000002070471FB524F033FB040000200021FC
:1082500024F04EFB401C60601FBD10B510BD24F023
:1082600001FB1146FFF7EEFF06F062FA24F024FB53
:1082700003B4FFF7F2FF03BC24F02CFB72B6704787
:1082800062B6704708480047FEE7FEE7FEE7FEE7F4
:10829000FEE7FEE7FEE7FEE7FEE7FEE703480449E8
:1082A000044A054B7047000031810008B0AE002041
:1082B000B0B40020B0B00020B0B00020314901437C
:1082C000314A1160704770B5002100230F22C47835
:1082D00004B32D4C246804F4E064C4F5E064210A7E
:1082E000C1F10403CA40447804FA03F184781440CD
:1082F00021430901254C0678A155047804F01F0597
:108300000124AC4005786D11AD0005F1E025C5F8FC
:10831000004109E0047804F01F050124AC401C4D25
:108320000678761145F8264070BD1A4A0A40024385
:10833000154B1B1F1A60704739B1134A121D126882
:108340000243114B1B1D1A6006E00F4A121D1268F2
:1083500082430D4B1B1D1A607047042808D14FF053
:10836000E021096941F004014FF0E022116107E0CA
:108370004FF0E021096921F004014FF0E022116182
:10838000704700000000FA050CED00E000E400E09A
:1083900080E100E080FFFF1F10B50446FA488442E8
:1083A00008D10121401501F058FE0021601501F0AF
:1083B00054FE17E0F548844208D10121001501F070
:1083C0004CFE0021201501F048FE0BE0F0488442ED
:1083D00008D10121C80301F040FE00214FF4004004
:1083E00001F03BFE10BD30B502460020002350686E
:1083F000E84C20400D790C6844EA05242043506085
:108400009068E54C2040D1E902542C434D7944EA70
:10841000450420439060D06A20F470000C7C641EF8
:10842000E4B2234340EA0350D06230BD0021016032
:10843000017141718160C16001210174704721B1F6
:10844000826842F00102826003E0826822F0010249
:108450008260704721B1826842F48072826003E0DA
:10846000826822F480728260704710B50023CBB21C
:108470001AB144681C43446002E044689C43446071
:1084800010BD816841F008018160704701460020FD
:108490008A6802F008020AB1012000E0002070475B
:1084A000816841F0040181607047014600208A68BC
:1084B00002F004020AB1012000E00020704721B15F
:1084C000826842F4A002826003E0826822F4A00283
:1084D00082607047014600208A6802F480020AB177
:1084E000012000E00020704710B50A46002100235B
:1084F000416821F46041531E41EA4331416010BD9F
:1085000021B1426842F40062426003E0426822F412
:10851000006242607047F0B504460D46002000211D
:10852000092D11DDE068A5F10A0606EB46070726CE
:1085300006FA07F18843A5F10A0606EB460603FA98
:1085400006F10843E0600CE0206905EB45070726CB
:1085500006FA07F1884305EB450603FA06F10843DE
:108560002061072A0FDA606B561E06EB86071F266E
:1085700006FA07F18843561E06EB860605FA06F151
:108580000843606322E00D2A0FDA206BD61F06EB4A
:1085900086071F2606FA07F18843D61F06EB8606D4
:1085A00005FA06F10843206310E0E06AA2F10D0627
:1085B00006EB86071F2606FA07F18843A2F10D068F
:1085C00006EB860605FA06F10843E062F0BD21B12C
:1085D000826842F48012826003E0826822F4801292
:1085E000826070470146C86C80B2704766484C3064
:1085F0000068704721B1426842F48062426003E043
:10860000426822F480624260704721B1426842F4BD
:108610008052426003E0426822F480524260704718
:108620000A460021816821F4E041114381607047CE
:1086300021B1826842F40042826003E0826822F441
:1086400000428260704721B1826842F40212826067
:1086500003E0826822F40212826070470146002023
:108660008A6802F400120AB1012000E0002070477D
:10867000F0B504461546002000220026092911DD28
:10868000E068A1F10A0707EB470C072707FA0CF28D
:108690009043A1F10A0707EB470703FA07F21043DB
:1086A000E0600CE0206901EB410C072707FA0CF2AF
:1086B000904301EB410703FA07F210432061A06BDE
:1086C000C0F30156EF1C06F1010CA7EB0C0707EBFA
:1086D000870C1F2707FA0CF29043EF1C06F1010CE0
:1086E000A7EB0C0707EB870701FA07F21043A0631B
:1086F000F0BD10B50A4600210023816B21F4401122
:10870000531E41EA0351816310BD08B50023009355
:108710000090009B0B440093009B1A6008BD08B5B5
:10872000024600200090009201F12800009B1844AE
:1087300000900098006880B208BD0A460021416898
:10874000164B194011434160704741628262704785
:108750000A460021416821F01F0111434160704722
:1087600040B109490831096841F40001064A08325C
:10877000116007E004490831096821F40001024A48
:1087800008321160704700000024014000280140B9
:10879000003C0140FFFEF0FFFDF7F1FFFFFD3FFF52
:1087A0000246002013680B400BB1012000E00020BE
:1087B0007047CA430260704770B50246002000232C
:1087C00000240B125568CEB205EA060415681D4058
:1087D00015B10CB1012000E0002070BD00220A128A
:1087E000D34303607047000010B50446FE4884423E
:1087F00009D10121480601F03DFC00214FF0007035
:1088000001F038FC08E00121880601F033FC00216A
:108810004FF0806001F02EFC10BD30B50246002004
:108820000023146824F002041460146844F0010466
:10883000146000E05B1C546804F001041CB94FF69E
:10884000FF74A342F6D1546804F001040CB900206F
:108850006CE08C79012C04D1146844F0800414601D
:1088600003E0146824F080041460CC79012C04D156
:10887000146844F04004146003E0146824F04004D9
:1088800014600C7A012C04D1146844F020041460A4
:1088900003E0146824F0200414604C7A012C04D105
:1088A000146844F01004146003E0146824F0100409
:1088B00014608C7A012C04D1146844F0080414600C
:1088C00003E0146824F008041460CC7A012C04D16D
:1088D000146844F00404146003E0146824F00404F1
:1088E00014608C78A407CD7844EA05640D7944EAD5
:1088F00005444D7944EA05540D886D1E2C43D4611E
:10890000146824F001041460002300E05B1C546828
:1089100004F001041CB14FF6FF74A342F6D1546871
:1089200004F001040CB1002000E0012030BD10B5BE
:108930000021837A012202FA03F1AC4A126842F064
:108940000102AA4B1A60A94A1C3212688A43A74B3B
:108950001C331A60027BCAB9A44A0C3212688A43DB
:10896000A24B0C331A604288C38842EA03439F4AF1
:108970004032847A42F834300288838842EA0343E2
:108980009A4A4032847A02EBC4025360027B012A85
:1089900019D1964A0C3212680A43944B0C331A6070
:1089A0004288038842EA0343904A4032847A42F87C
:1089B0003430C288838842EA03438C4A4032847A46
:1089C00002EBC4025360C27A3AB9884A121D126897
:1089D0008A43864B1B1D1A6006E0844A121D1268EA
:1089E0000A43824B1B1D1A60028932B97F4A143236
:1089F00012688A437D4B14331A600289012A06D11A
:108A00007A4A143212680A43784B14331A60427B54
:108A1000012A06D1754A1C3212680A43734B1C3373
:108A20001A60724A126822F00102704B1A6010BD7F
:108A300000218171C171017241728172C1728170B4
:108A4000C170032101710221417101210180704730
:108A50006649096841F00101644A116011460968DC
:108A600043F60E729143614A11601146096841EA6A
:108A7000002111601146096821F001011160704761
:108A800021B1026842F48032026003E0026822F4FD
:108A9000803202607047E1B1026842F080020260F9
:108AA0004FF4C272125842F480734FF4C2721350E2
:108AB0004FF4CA72125842F480734FF4CA721350C2
:108AC0004FF4D272125842F480734FF4D2721350A2
:108AD0001BE0026822F0800202604FF4C27212585A
:108AE00022F480734FF4C27213504FF4CA721258BA
:108AF00022F480734FF4CA7213504FF4D27212589A
:108B000022F480734FF4D2721350704710B50246AE
:108B10000020936803F08063B3F1806F00D110E010
:108B2000936803F00063B3F1006F01D1012008E006
:108B3000936803F08053B3F1805F01D1022000E01D
:108B40000420042879D002F5C07303EB00131B68DE
:108B500003F0010402F5C07303EB00131C600B7AF1
:108B60007BB94B7A0C8843EA445302F5C07404EB9A
:108B700000142468234302F5C07404EB001423603E
:108B800010E00B7A4C6843EAC4034C7A234302F5A5
:108B9000C07404EB00142468234302F5C07404EB92
:108BA000001423608B7A03F00F038B7202F5C073FD
:108BB00003EB00135B6823F00F0402F5C07303EBB3
:108BC00000135C6002F5C07303EB00135B688C7AE2
:108BD000234302F5C07404EB001463608B7B1C0616
:108BE0004B7B44EA034403E000640040006600401D
:108BF0000B7B44EA0323CC7A234302F5C07404EBD5
:108C00000014A3608B7C1C064B7C44EA03440B7C61
:108C100044EA0323CC7B234302F5C07404EB001425
:108C2000E36002F5C07303EB00131B6843F001041B
:108C300002F5C07303EB00131C6010BD10B50246B3
:108C4000002321B1012907D002290FD109E0906842
:108C5000F94C00EA04030BE09068F84C00EA0403C6
:108C600006E09068F64C00EA040301E0002300BF30
:108C700000BFF44C181BA34216D007DC83B16FF081
:108C80008060184470B1022818D111E0B0F5007F5F
:108C900010D0ED4C204448B1B0F5003F0ED10BE0B0
:108CA00002230DE000230BE0002309E0002307E08E
:108CB000012305E0012303E0012301E0002300BFBD
:108CC00000BFD8B210BD21B1012907D002290FD1B0
:108CD00009E0826842F0800282600AE0826842F421
:108CE0000042826005E0826842F40002826000E097
:108CF00000BF00BF704710B500F5D87303EB011338
:108D00001B6803F004031372137A53B900F5D87388
:108D100003EB01131B6840F2FF7404EA5353136022
:108D200009E000F5D87303EB01131B686FF0604492
:108D300004EAD303536000F5D87303EB01131B68F7
:108D400003F00203537200F5D87303EB01135B6861
:108D500003F00F03937200F5D87303EB01135B6804
:108D60001B0AD37400F5D87303EB01139B68D3720D
:108D700000F5D87303EB01139B681C0A147300F50C
:108D8000D87303EB01139B681C0C547300F5D87364
:108D900003EB01139B681B0E937300F5D87303EB71
:108DA0000113DB68D37300F5D87303EB0113DB68A1
:108DB0001C0A147400F5D87303EB0113DB681C0C58
:108DC000547400F5D87303EB0113DB681B0E937426
:108DD00021B9C36843F02003C36003E0036943F093
:108DE0002003036110BD21B9C26842F02002C260B5
:108DF00003E0026942F0200202617047024600204F
:108E000019B9D36803F0030006E0012903D11369FF
:108E100003F0030000E00020704710B502460B4647
:108E200000204FF6FF71BBB9146824F0020444F02F
:108E30000104146000E0491E546804F00304012C8E
:108E400001D00029F7D1546804F00304012C01D0AB
:108E5000002032E0012030E0012B13D1146824F00F
:108E60000304146000E0491E546804F003040CB1CC
:108E70000029F8D1546804F003040CB100201CE070
:108E800001201AE0022B17D1146824F0010444F0E9
:108E90000204146000E0491E546804F00304022C2C
:108EA00001D00029F7D1546804F00304022C01D04A
:108EB000002002E0012000E0002010BD014600205B
:108EC0000A6822F0010242F002020A604A6802F0D7
:108ED0000302022A00D10120704701464FF6FF72BB
:108EE00000200B6823F002030B6000E0521E4B6869
:108EF00003F00203022B01D1002AF7D14B6803F0E3
:108F00000203022B00D001207047014600208A692D
:108F100002F070007047014600208A69100E704709
:108F2000014600208A69C2F3074070471AB14369BD
:108F30000B43436102E043698B434361704710B5C3
:108F40000246002001F4700343B19369C1F3130496
:108F500023400BB101202DE000202BE001F08073B5
:108F600043B15368C1F3130423400BB1012021E046
:108F700000201FE001F0006343B19368C1F31304C4
:108F800023400BB1012015E0002013E001F0007335
:108F900043B1D368C1F3130423400BB1012009E0AE
:108FA000002007E01369C1F3130423400BB1012033
:108FB00000E0002010BD0022244B994202D1002382
:108FC000836111E0C1F3130201F000730BB1C260C1
:108FD0000AE001F080630BB1026105E001F000637B
:108FE0000BB1826000E0426070470246002002EA56
:108FF00001030BB1012000E00020704770B504466A
:109000000D46002660692840002872D0B5F5807FA3
:1090100069D01DDC082D42D006DC012D2DD0022D9B
:1090200031D0042D7FD134E0102D3ED0202D42D000
:10903000402D78D145E00000030000040003000843
:1090400000000310000100080001FFF77000F0307D
:10905000B5F5004F61D009DCB5F5007F4AD0B5F514
:10906000806F4DD0B5F5006F5DD150E0B5F5803F14
:109070002DD0B5F5003F56D12FE0A0685549FFF738
:10908000B4FF064651E0E0680321FFF7AEFF064655
:109090004BE0E0680821FFF7A8FF064645E0E068DE
:1090A0001021FFF7A2FF06463FE020690321FFF7EA
:1090B0009CFF064639E020690821FFF796FF064627
:1090C00033E020691021FFF790FF06462DE060682D
:1090D0000821FFF78AFF064627E060681021FFF7A6
:1090E00084FF064621E0A0690121FFF77EFF0646C6
:1090F0001BE01BE0A0690221FFF777FF064614E0A2
:10910000A0690421FFF771FF06460EE00BE0A0699D
:109110007021FFF76AFF064607E060680421FFF749
:1091200064FF064601E0002600BF00E0002630464E
:1091300070BDB1F5007F3AD00FDC202928D006DCC5
:1091400001291CD004291DD0082940D11DE0402947
:1091500021D0B1F5807F3AD126E0B1F5004F31D072
:1091600006DCB1F5806F25D0B1F5006F2FD124E07A
:10917000B1F5803F12D0B1F5003F28D111E0154A7A
:10918000826025E00822C26022E01022C2601FE057
:10919000082202611CE01022026119E008224260EC
:1091A00016E01022426013E00422426010E0042224
:1091B00042600DE0042242600AE000228261042243
:1091C000426005E0002282610422426000E000BFAC
:1091D00000BF70470101010001684FF6FE721140A7
:1091E00001600021016041608160C1608D49884259
:1091F00008D18C490839496841F00F01894A083A79
:1092000051608AE087491431884208D1854908397C
:10921000496841F0F001834A083A51607DE0814994
:109220002831884208D17F490839496841F4706182
:109230007C4A083A516070E07A493C31884208D152
:1092400078490839496841F47041764A083A5160D2
:1092500063E074495031884208D17249083949683D
:1092600041F470216F4A083A516056E06D4964310B
:10927000884208D16B490839496841F47001694A4C
:10928000083A516049E067497831884208D1654918
:109290000839496841F07061624A083A51603CE01F
:1092A0006149884206D1011F096841F00F01021F80
:1092B000116032E05C491431884208D15A49091FD3
:1092C000096841F0F001584A121F116025E0564923
:1092D0002831884208D15449091F096841F4706156
:1092E000514A121F116018E04F493C31884208D1A1
:1092F0004D49091F096841F470414B4A121F116022
:109300000BE049495031884207D14749091F096894
:1093100041F47021444A121F1160704710B50022B9
:10932000026847F6F0739A430C6A8B6823430C6912
:1093300023434C6923438C692343CC6923434C6A00
:1093400023438C6A23431A430260CB6843600B6853
:1093500083604B68C36010BD002101604160816083
:10936000C160016141618161C161016241628162EB
:10937000704721B1026842F00102026004E0026815
:109380004FF6FE731A40026070471AB103680B4330
:10939000036002E003688B430360704741607047DD
:1093A0000146486880B2704701460020002201F063
:1093B00080531BB11C4B083B1A6802E0194B083B59
:1093C0001A6802EA01030BB1012000E00020704797
:1093D00000F0805119B11449091F086002E01149D9
:1093E00008394860704701460020002201F0805390
:1093F0001BB10D4B083B1A6802E00A4B083B1A6888
:1094000002EA01030BB1012000E00020704700F0E8
:10941000805119B10449091F086002E00149083967
:1094200048607047080002400804024001460020DE
:10943000FE4A106800F03800084310607047FB498E
:10944000096821F00801F94A1160114609680143D1
:1094500011607047F549096821F01001F34A116065
:1094600011460968014311607047F148EF494860AF
:10947000F04848607047EE48EC494860ED48486065
:109480007047EA48006940F08000E8490861704789
:10949000E648006940F08000E44908617047042014
:1094A000E249C96801F0010109B101200EE0DF497C
:1094B000C96801F0040109B1022007E0DB49C9686D
:1094C00001F0100109B1032000E00420704700B54D
:1094D00002460423FFF7E3FF034603E0FFF7DFFF45
:1094E0000346521E012B01D1002AF7D102B90523F0
:1094F000184600BD30B504460425CF48FFF7E7FF06
:109500000546042D16D1C948006940F00200C7493C
:10951000086108464461006940F040000861C6489F
:10952000FFF7D5FF0546C148006941F6FD710840C7
:10953000BE490861284630BD10B50424BE48FFF777
:10954000C6FF0446042C15D1B848006940F0040059
:10955000B64908610846006940F040000861B64815
:10956000FFF7B5FF0446B148006941F6FB710840BA
:10957000AE490861204610BD00B502460423FFF73E
:109580008EFF034603E0FFF78AFF0346521E012BBE
:1095900001D1002AF7D102B90523184600BD10B544
:1095A0000424A548FFF7E8FF0446042C15D19F4882
:1095B000006940F004009D4908610846006940F0D8
:1095C000400008619C48FFF7D7FF044697480069B0
:1095D00041F6FB71084095490861204610BD002006
:1095E0009249C96901F0020109B1012000E000209F
:1095F000704730B5A5250424FFF7F1FF00B1002521
:109600008D48FFF764FF0446042C39D18848874908
:109610008860884888600846006940F0200008613A
:109620000846006940F0400008618348FFF74FFF9B
:109630000446042C1BD17D48006941F6DF710840C7
:109640007A4908610846006940F0100008617B48CB
:1096500005804013FFF73BFF0446052C10D07348EC
:10966000006941F6EF7108407049086108E0052C77
:1096700006D06E48006941F6EF7108406B490861F9
:10968000204630BD78B506460C46042500200090E3
:109690004FF6FF70FFF71BFF0546042D26D16348E8
:1096A000006940F001006149086134804FF6FF70A5
:1096B000FFF70DFF0546042D11D1B01C0090200CC2
:1096C000009908804FF6FF70FFF701FF05465748E5
